:020000040000fa
:08000000c02404000000000010
:020000040000fa
:10480000c024040000000000f67b0400000000004b
:10481000f67b040000000000dc7b040000000000c8
:10482000e07b040000000000f67b040000000000b4
:10483000f67b040000000000f67b0400000000008e
:10484000f67b040000000000747404000000000007
:10485000f67b040000000000f67b0400000000006e
:10486000f67b040000000000f67b0400000000005e
:10487000f67b040000000000f67b0400000000004e
:10488000f67b040000000000f67b0400000000003e
:10489000f67b040000000000f67b0400000000002e
:1048a000f67b040000000000f67b0400000000001e
:1048b000f67b040000000000f67b0400000000000e
:1048c000f67b040000000000f67b040000000000fe
:1048d000f67b040000000000f67b040000000000ee
:1048e000f67b0400000000002e73040000000000ae
:1048f000ec73040000000000f67b040000000000e0
:10490000f67b040000000000f67b040000000000bd
:10491000f67b040000000000f67b040000000000ad
:10492000f67b040000000000f67b0400000000009d
:10493000f67b040000000000f67b0400000000008d
:10494000f67b040000000000f67b0400000000007d
:10495000f67b040000000000f67b0400000000006d
:10496000f67b040000000000f67b0400000000005d
:10497000f855040000000000f67b04000000000071
:020000040000fa
:104980008f9c21000e7f22000e0188000000000095
:1049900000012000200288000c000700c0a22700b0
:1049a0000100200011000700000020000000e000ce
:1049b000020032000000020000000000e47b020060
:1049c000000000000040da000000fe004440a900a2
:1049d000800220000000e000030032000000200000
:1049e000a00188004440a800000006009101880052
:1049f000800078000000eb0015003700e2804000e6
:104a000032a0b4009101ba00e280400032a0b400ac
:104a10009102ba00e280400032a0b4000002eb0034
:104a2000472bde00f507b200602ce10004003a00dd
:104a30000059eb008301e900fdff3e000400370050
:104a40006128e100010032000082eb000400070051
:104a50001101ba000200e000e8ff3a000000060081
:104a60003159ba008301e9000c0032002159ba0023
:104a70008301e900080032000400e00003003a006e
:104a8000e280400032a0b400f5ff370011d9ba002f
:104a90008301e900faff3a008100e800e18040006c
:104aa00032a0b4000000060000000000000000007a
:104ab00000000000000000000000000000000000f6
:104ac00014002000130037004f89de0082017800b7
:104ad0002b0037006022b800060220000000d00042
:104ae0008180d2000482d2008582d2000000a00022
:104af0000202520083825a00030031000202420087
:104b000083824a000000a1000603e900f3ff3a0097
:104b100000000600889fbe008a9fbe00841f7800a8
:104b20007c0007004f00780011003300f0ff2f00d9
:104b3000838f6c0006003b00040565000a00a70097
:104b40000800370009f0a600100020000800370018
:104b5000820f5400838f5c00030039001000200096
:104b600001003e000000200009f0a7000000ea005c
:104b70004f05be004f04be000000e000000006002c
:104b8000881f7800030478000300e00007003d0060
:104b900060001000e080180060011900e081190039
:104ba00002003b0001f02d00030037000400070065
:104bb00008f0a70001f0a0004f04780000000600f4
:104bc000889fbe008a9fbe000082700004027100b0
:104bd00004827100260032000004be000200be0004
:104be0006011b8006b092000950220000182cf00ff
:104bf0000a0039000541b1000082cf0007003900ea
:104c00000541b1000982cf00040039000541b1001f
:104c10000882cf00010039000541b1000542520071
:104c2000120032000a003b008281710061016400c1
:104c30008100d1000080d3008984d3000884d30090
:104c40008b05e8000442e800f7ff3a000700370050
:104c50000804440089844c0000004800818048001a
:104c60008b05e9000442e900f9ff3a000300070060
:104c70004f05be004f04be0000000600810020006a
:104c8000618055000b003d000b00200061fe2f00ed
:104c90000100e1001d0034008281710061016400a7
:104ca0008904d1000884d3000000e800faff3a002c
:104cb00071002000610064000300700002006000c9
:104cc0000900320061044400e0844c000988a5001a
:104cd000050032008b05e8006808e10002003a0098
:104ce0008904d1000884d300f20f20000258e100ab
:104cf00005003d00c75ddd00f907b2008980750041
:104d000008007800000006000bf827008b007800f0
:104d1000000005000004be00060007000003be00fe
:104d20000405be000200be0002000700844f7500ab
:104d300000000600c70ade00f107b200f50fb2005e
:104d400008003200e1cf4200020032000170a000f2
:104d500024000500810f70000100320004080500e6
:104d600044000500810f700002003a0014000500a5
:104d70008502e9000000400081c04800fcff3b00c4
:104d80000170a0002400050006c2b30000027800f4
:104d900004007800b042780086cf5200fbff32005a
:104da000e9cf5200f9ff3200d6c2b30086cf5200dd
:104db00003003a000002780016c0b3000500370077
:104dc0000043eb00b7c2b30087cf520001003a00a6
:104dd000000278000000eb00020037006a00b90012
:104de00000804200b402fb000503b100e98f5200cd
:104df000faff3600e04f5300010032000000ea00e5
:104e000000000600e4874700889fbe008a9fbe001e
:104e10008c9fbe008e1f780044cf2000a5678000c5
:104e2000e08f52000b003a00e4024200a5678800c0
:104e3000f567880024029800e4678800a442900087
:104e40000504a00025429800e44290000504a0005b
:104e500065429800670440004244de004244dd00a1
:104e6000e267800004e12000899c210084845400d2
:104e700025002000110009008504d80080bf9f0094
:104e8000050744000e0747000003eb00e40544005b
:104e9000bc9c2100040656000806460002003700ac
:104ea000160020000d01780022429000610262008d
:104eb000020032000a0037001509780092027800db
:104ec0002542900061026200fbff320008024100af
:104ed000848f520002003900e00f54003f003d0073
:104ee000920678000d00a100828f5600edff3e0073
:104ef000e10f5300eaff3a000fba9700840f540005
:104f000002003600890f5400100039006143b800d8
:104f1000614ab900b0ff2f000100200004025000d8
:104f200085825800840f5300858f5b000200350096
:104f30000b05780006003700110009000986d8002b
:104f40000982b90004057800010037000e057800d9
:104f50000a00780090000700e10f400005003a00c9
:104f60000b0578000b0078008b000700e10f400074
:104f70002b003200f4678000000a7800f46780009c
:104f800064034200a4429000860f500002003200e9
:104f90000504a000010037000504a1002542980087
:104fa000640555000a0540000a087800fa67880081
:104fb00044cf2000040d7800f56780002542900062
:104fc0000404a000a4429800204290000404a10020
:104fd000244098000003eb00b2ff3700e46788002c
:104fe000848f5200070036001403be000668880054
:104ff00017688800120a78008042eb00e46780009e
:1050000025429800e7678000070978002242900057
:105010000404a0002441980064004100010037000e
:105020000000eb004f0778004f06be004f05be00a2
:105030004f04be004f00b10000000600e00f50001a
:105040000800320064005000e4678000840f5000c4
:1050500001003100e0678800204290000404a100b4
:105060002440980000000600889fbe008a9fbe0072
:105070000004be00e08f540005003a00e00f540029
:105080003200320008007800ecff070030003700e3
:10509000e00f540004003a000900780059ff0700af
:1050a000800478002a0037006402540094057800d8
:1050b00068fa97006102620002003200080078007e
:1050c000deff0700090078004eff0700800478002b
:1050d000e08f54001e003200888f54001b00320005
:1050e00069bd97000905550042d5de008885550049
:1050f000c2ddde000a0178008b0f5500010036008a
:105100000b0178004211dd0088007800090078006a
:1051100013000700888f54000d0031004255dd0058
:105120000a854400880f5500090036000804550020
:1051300042c4de004244dd0008844400046880006c
:1051400015688000048cbe000100370088047800d8
:10515000090078004f05be004f04be0000000600a5
:105160000002780002003700315a78000201e9009d
:10517000e00f5100fcff3a0000000600000278003a
:1051800002003700015a78000201e900e00f5100e7
:10519000fcff3a0000000600889fbe0080047800f3
:1051a00020688000e00f500004003a000e00070065
:1051b0000084eb00e00f50000800350028688000f4
:1051c000e08f54000500320009004400060007008b
:1051d000e00f500001003d000084eb000800780063
:1051e0004f04be0000000600e00f500004003a002b
:1051f00004e12000246888000002780006003700df
:105200000082eb00859c2100850f500002003e00cb
:10521000206888000002eb0004007800000006000f
:020000040000fa
:020000040001f9
:0457f00033ff000083
:020000040000fa
:020000040001f9
:0457f400c0fc0000f5
:020000040000fa
:020000040001f9
:0457f8008f09000015
:020000040000fa
:020000040001f9
:0457fc00603f00000a
:020000040000fa
:1000080004240000082400000c2400001024000030
:1000180014240000bc240000bc240000bc24000000
:10002800182400001c2400002024000024240000c0
:10003800bc240000282400002c24000030240000e8
:1000480034240000382400003c2400004024000030
:100058004424000048240000bc240000bc24000004
:100068004c240000502400005424000058240000b0
:100078005c240000bc240000bc240000bc24000058
:10008800bc240000602400006424000068240000f0
:100098006c24000070240000742400007824000000
:1000a8007c24000080240000bc240000bc24000044
:1000b800bc24000084240000882400008c24000054
:1000c800bc24000090240000bc240000bc240000d4
:1000d800bc24000094240000bc240000bc240000c0
:1000e800bc240000982400009c240000bc240000cc
:1000f800bc240000bc240000bc240000bc24000078
:10010800bc240000bc240000bc240000bc24000067
:10011800bc240000bc240000a0240000bc24000073
:10012800bc240000a4240000a8240000ac24000083
:10013800bc240000bc240000bc240000bc24000037
:10014800b0240000bc240000bc240000bc24000033
:10015800bc240000b4240000bc240000bc2400001f
:10016800bc240000bc240000bc240000bc24000007
:10017800bc240000bc240000b8240000bc240000fb
:10018800bc240000bc240000bc240000bc240000e7
:10019800bc240000bc240000bc240000bc240000d7
:1001a800bc240000bc240000bc240000bc240000c7
:1001b800bc240000bc240000bc240000bc240000b7
:1001c800bc240000bc240000bc240000bc240000a7
:1001d800bc240000bc240000bc240000bc24000097
:1001e800bc240000bc240000bc240000bc24000087
:0801f800bc240000bc2400003f
:020000040000fa
:105220004300000058000000440000005800000047
:105230004500000046000000580000004700000044
:10524000580000004100000058000000420000002b
:1052500030310000323300003435000036370000b2
:105260003839000041420000434400004546000038
:020000040000fa
:105270000400fa002047980031479800f5c5200047
:10528000954278002e42900084cf520002003200f6
:1052900064c0b300120037003e409000080b0700c6
:1052a00000027800040f78001e027800e00f520020
:1052b0000a0032009e027800150290000450a100fe
:1052c000940298009e027800150290000460a100ec
:1052d000940298000042eb000100370044c1b30083
:1052e000044078000080fa00000006000200fa0086
:1052f000004f7800646380004622de006142620055
:105300000482fb00040078000080fa000000060020
:105310000200fa00004f78009562800004f020003f
:1053200004826200e00f520002003a0014c3b3008e
:10533000190037009562800004f02000848262002a
:1053400004402000848f520009003a0095628000da
:10535000040f200004826200f00f520002003a00a5
:10536000a4c3b3000c00370004c3b3000a00370025
:105370009562800004f020008482620004502000c6
:10538000848f520003003a0004c6200014427800c3
:105390000100370024c3b300044078000080fa0005
:1053a000000006000400fa00008fbe005463800075
:1053b000e00f52000d003a002002200091fe07008d
:1053c000000278005463880054638000e00f5200ac
:1053d00002003a000002eb0019003700546380001d
:1053e0008002eb00050a780001003700be100700bc
:1053f00054638000746288000002eb0094628800ad
:105400000082eb00a46288000042eb0004407800b8
:105410005eecb7000042eb00044078005fecb700a0
:10542000a40ca800440020007463880044002000fd
:10543000846388000002eb0094638800140020005d
:10544000040078000080fa00000006001400fa0052
:105450006047980071479800024f980053079800e2
:105460006407980075079800060f98002757980062
:10547000f5c52000954278006e42900084cf52001e
:105480000200320064c0b300a600370095628000bd
:1054900004f020008482620004402000848f5200c7
:1054a0000200320014c0b3009e0037005463800035
:1054b000940290000420200004826200e00f520059
:1054c00002003a0004c1b300960037000e4a900073
:1054d000eb4f520042003a004463800014079800ea
:1054e000030037001e029000940278001507980010
:1054f0001e029000e00f5200060032001e029000d3
:10550000644290008482fb006e029000848f5200ff
:10551000f4ff3a001e029000e00f52000400320037
:105520001e02900024029000e00f520002003a0098
:1055300034c0b3007b0037001e02900024029000ac
:10554000a4029000050f78000a0037001e027800c0
:10555000940290000420200004826200e00f5200b8
:1055600002003a0034c0b3006e0037001e0278001b
:10557000140f78001e027800e00f5200f3ff3a008b
:105580001e02900094029000250798000300370047
:105590002e02900094027800250798002e029000b9
:1055a000e00f5200060032002e02900024429000cc
:1055b0008482fb005e029000848f5200f4ff3a0068
:1055c0002e029000e00f520002003a0034c0b300f7
:1055d000540037001e029000ae0290002502980091
:1055e0000e4a9000e14f52000e003a005e02900019
:1055f000e00f52000b003a007e4290000482fb0054
:1056000060024200e20f520005003e006e02900070
:1056100004427800044078001814070001003700a5
:105620000000000084628000fe429000054a78007d
:10563000846280000402e8008e4a9000054a7800e7
:10564000846280008482e8005e0290000442780058
:10565000844a780084628000e30242005e02900087
:105660004822de0004427800844a78008462800088
:10567000e40242006e02900004427800844a7800fe
:1056800084628000e50242006e0290004822de0043
:1056900004427800844a780084628000e602420076
:1056a0007e02900004427800844a78008462800080
:1056b000e70242007e0290004822de0004427800a9
:1056c000844a7800546380008efa9700155a980037
:1056d0002e529000e04f520009003a00866280008e
:1056e000556380007e0290008e09900082002000a9
:1056f0008600780005007800611007000800370078
:1057000086628000556380007e0290008e099000c2
:105710008200200086007800050078001b1007003a
:105720000042eb00044078000080fa000000060010
:105730000a00fa0020479800314798002207980095
:105740003407980045079800f5c520009542780079
:105750002e42900084cf52000200320064c0b30099
:105760003d0037009562800004f0200084826200d2
:1057700004402000848f52000200320014c0b300a5
:10578000350037003e409000cd0907000002780048
:10579000040f78001e027800e00f52002d00320046
:1057a0001e027800d40a90000430200004826200b7
:1057b000e00f520002003a0084c1b3002600370017
:1057c0001e027800245a9000e04f5200020035007b
:1057d00054c1b300200037001e02780094029000ec
:1057e0000402200004826200e00f52000200320036
:1057f00014c1b300180037001e0278009402900014
:105800000404200004826200e00f52000200320013
:1058100024c1b300100037001e02780094029000eb
:105820000420200004826200e00f520002003a00cf
:1058300004c1b300080037003e0290000401780064
:10584000ae0090001e007800511007000042eb00ef
:105850000100370044c1b300044078000080fa0022
:10586000000006000200fa00004f7800f4c5200096
:10587000144278009e4f52000200320064c0b30010
:105880000a0037009562800004f020000482620064
:10589000e00f520002003a0034c0b30003003700aa
:1058a0000002eb00946288000042eb0004407800a4
:1058b0000080fa00000006000200fa00004f7800a5
:1058c000f4c52000144278009e4f520002003200be
:1058d00064c0b3000a0037009562800004412000d4
:1058e000848f52000200320034c0b300040037003d
:1058f000946280000402e800946288000042eb0099
:10590000044078000080fa00000006000200fa005f
:10591000004f780011479800f4c520001442780029
:105920009e4f52000200320064c0b30016003700e0
:105930009562800004f02000848262000440200010
:10594000848f52000200320014c0b3000e003700f2
:105950007614070000027800e00f520002003200c7
:1059600024c0b300080037001e4090005cecb70074
:105970005563800000c2eb00945a98000433200065
:10598000946288000042eb00044078000080fa0036
:10599000000006000800fa002047980031479800f0
:1059a0002207980033079800f5c52000954278003b
:1059b0002e42900084cf52000200320064c0b30037
:1059c0001b0037003e4090003d09070000027800b0
:1059d000040f78001e027800e00f5200130032001e
:1059e0002e0290000442780061426200614262002f
:1059f000614262009e0278000482fb006102620044
:105a00004d22dd0095039000f6ff2d000683630014
:105a100004027300940298001e027800be029000f7
:105a2000051298000042eb000100370044c1b300aa
:105a3000044078000080fa00000006000200fa002e
:105a40000002eb0044248800f4c5200014427800d2
:105a5000e04f5200110032000042eb00044f78008a
:105a6000f6c5200016437800240020000500200021
:105a70000e017800a10620000640780030260700bd
:105a8000f4c520001442780013002000f2c5200065
:105a900011072000044078004d1007006000b80096
:105aa00040fe07000080fa00000006000200fa0035
:105ab000004f7800f4c52000144278009e4f520039
:105ac0000200320064c0b3000a0037009562800013
:105ad00004402000848f52000200320034c0b30022
:105ae000040037009404a900044120009462880057
:105af0000042eb00044078000080fa00000006003d
:105b00000c00fa00881f7800390037008463800099
:105b1000e20f520007003c00846380000402e800aa
:105b20006c22b9008402780044c72000048242003d
:105b30000100370044c72000240798002e0290007f
:105b40001402780025072000850f52000300320060
:105b5000f5ff2700850f52000c003a002e0290003e
:105b60000483e8002e02900094027800f4c520001f
:105b700014427800a3002000060178008500780018
:105b800004407800121007000100370000000000f8
:105b900060248000300798000002eb006424880035
:105ba000946380000402e9009463880084638000a9
:105bb000e20f520004003c00846380000402e8000d
:105bc00084638800020037000002eb0084638800d1
:105bd000846380006c22b9008402780044c72000ee
:105be00004824200240798003e029000642488004a
:105bf00094638000e00f5200c4ff3a00a46280006a
:105c0000e10f420004003200a46280009462880028
:105c10000082eb00a46288009562800004f02000fe
:105c20000482620005202000850f520069023200c4
:105c300005202000850f520006003e00e00f5200b4
:105c40000e00320005102000850f5200bc0032000b
:105c50004306370005402000850f52008a053200b8
:105c600005502000850f5200bb0532000530200092
:105c7000850f5200bd023200390637009562800060
:105c8000040f200004826200f00f52007100320005
:105c9000f00f520003003e00e00f520008003200f7
:105ca0002f06370005022000850f520074003200d5
:105cb00005032000850f52009f00320028063700a0
:105cc0005eff0700546380008002eb00050a780045
:105cd000546380008002eb00150298005563800039
:105ce0001502900004a0a000940298005563800063
:105cf000150290000490a000940298005563800063
:105d00001502900004d0a000940298005463800013
:105d1000450120000512980054638000050420000e
:105d200045029800566380006022b800040b98007a
:105d3000150b9800556380000042eb00a45a9800b0
:105d4000556380000042eb00845a98005563800040
:105d5000550a90000480a1000490a100d40a980084
:105d60005563800000c2eb00945a980034c0b30021
:105d7000044078004aecb7000042eb000440780091
:105d80005cecb7000042eb00044078005decb7002b
:105d90000042eb00044078005eecb7000002eb002c
:105da000646388000002eb00446388000002eb009b
:105db000b46288000002eb0064248800f40f200025
:105dc0005424880015248000c40820000482620046
:105dd00014248800d4072000042488000002eb006b
:105de00084248800f40f20007424880004e020003c
:105df0004822de00c424880084002000a4248800f7
:105e0000a4002000a424880084002000a42488008a
:105e10000403200034248800240020003425880056
:105e20000002eb00442588000002eb00b424880047
:105e3000aae4a900a404200004258800956280003b
:105e400004ff200004826200700242009462880015
:105e50003a00370044ca20001442780061426200d0
:105e6000e04f5200050032009562800004ff2000e0
:105e70000482620070024200946288002f003700a2
:105e80000042eb00244f980024c3b300344f980025
:105e90006a03470024002000050020000601780066
:105ea0009106200000c0eb002525070000027800c5
:105eb000e00f52001c00320014002000442488002f
:105ec00075048000f4fb2f000482620074048800d3
:105ed00075068000f40f2f000482620074068800ab
:105ee0007506800004602000048272007406880039
:105ef000f50480000404200004827200f404880089
:105f00009562800004ff200004826200700242005b
:105f1000946288008cc4a800040420000424880033
:105f200082c4a80003003700a40ca90004012000cb
:105f300094628800010037000000000088053700e7
:105f400095628000040f2000048262000502200098
:105f5000850f5200ad00320005022000850f52006f
:105f600005003e00e00f52000a003200f00f520020
:105f7000250032007a05370005032000850f520006
:105f80003301320005042000850f520089013200e0
:105f900073053700946280006f026200e10f5200c7
:105fa00011003200e10f520003003900e20f5200ed
:105fb0000e00320013003700140020005424880023
:105fc0008c04a800b40f2000646288000404200040
:105fd0000424880082c4a800946280000402e800bf
:105fe0009462880007003700060037009562800041
:105ff00004ff200004826200700242009462880064
:106000000000000072013700946280006f0262009d
:10601000050020004600200007002000860f5200e7
:10602000878f5a0077003e000460010004003700ab
:106030005d0037005d0037006700370067003700fc
:1060400084628000e00f520005003200846280000c
:1060500004007800f9fb07000002eb00846288006e
:106060008000200067fb070000027800846288003f
:1060700084628000e00f520006003a0034c3b3008f
:106080000440780060ecb70004502000946288005f
:106090005d0037000042eb00044078005cecb70084
:1060a0000042eb00044078005decb7000002eb001a
:1060b0006463880034c0b3000440780049ecb70042
:1060c000d4002000542588000002eb0064258800dd
:1060d0000002eb00742588000002eb008425880094
:1060e0000002eb00942588000002eb00a425880044
:1060f0000002eb00b42588000002eb00c4258800f4
:106100000002eb00d42588000002eb00e4258800a3
:106110000002eb00f42588000002eb000426880052
:106120000002eb00142688000002eb002426880001
:106130000002eb00342688000002eb0044268800b1
:10614000a52480000408200004826200e00f5200b1
:1061500007003a006c0ca80004c8b30004407800a3
:106160005eecb70004082000b4248800aae4a8006c
:106170009424a8009424a9006c8ca9006caca900fc
:106180009484a80034032000646288000404200082
:106190000424880082c4a800946280000402e800fd
:1061a0009462880018003700170037009484a90013
:1061b0009404a800b4002000646288000404200055
:1061c0000424880082c4a800946280000402e800cd
:1061d000946288000c0037000b003700f4002000a8
:1061e00064248800f40f20008424880095628000d5
:1061f00004ff200004826200700242009462880062
:106200000100370000000000f100370094628000b8
:106210006f026200e10f520039003200e10f5200bc
:1062200003003900e20f52005200320087003700ad
:1062300094678000e00f52000500320094678000f0
:10624000040078007dfb07000002eb0094678800e3
:106250008562800004c8b300844a780084628000ac
:106260008402e80064c0b300844a7800846280003d
:106270008482e8000042eb00844a78008462800057
:10628000e302420014c0b300844a780084628000b4
:10629000e40242000042eb00844a780084628000fd
:1062a000e50242000042eb00844a780084628000ec
:1062b000e602420084c0b300844a78008462800011
:1062c000e70242000042eb00844a780087628000c7
:1062d000866280005563800084002000870178007a
:1062e000820020008600780005007800270d070056
:1062f000946280000402e800946288005300370032
:106300005463800094029000042020000482620004
:10631000e00f520016003200546380009402900097
:106320000410200004826200e00f52000f003200cf
:10633000846280006402420014427800e94f5200f7
:1063400006003a0054c3b3000440780060ecb70084
:106350000450200094628800050037009462800099
:106360000402e8009462880001003700530507002a
:106370003600370084628000144278000482fb00fb
:10638000040078009ffa07000002780094678800f4
:1063900094678000e00f520006003a0034c3b30057
:1063a0000440780060ecb70004502000946288003c
:1063b00026003700956780008462800014427800d0
:1063c000844a7800556380008462800074429000a3
:1063d0000482fb00c40298008462800004007800fc
:1063e00016fb07000002eb00846288005463800003
:1063f000440290000400780082fa0700000278004e
:106400008462880084628000e00f520006003a0037
:1064100034c3b3000440780060ecb700045020009f
:10642000946288000900370034c0b300044078004b
:1064300049ecb7009562800004ff200004826200ee
:106440007002420094628800000000006000370083
:10645000946280006f026200e10f52003900320046
:10646000e10f520003003900e20f520047003200f2
:106470004f003700b462800070026200e00f5200eb
:10648000010032004a0037008562800004c8b30072
:10649000844a7800846280008402e80064c0b3000b
:1064a000844a7800846280008482e8000042eb0025
:1064b000844a780084628000e302420014c0b30082
:1064c000844a780084628000e40242000042eb00cb
:1064d000844a780084628000e50242000042eb00ba
:1064e000844a780084628000e6024200946780005b
:1064f00014427800844a780084628000e7024200f7
:106500000042eb00844a78009467800014427800cf
:106510000482fb00976780008662800055638000dc
:10652000870178008200200086007800050078004e
:10653000960c0700946280000402e80094628800d0
:106540001b00370054638000940290000420200058
:1065500004826200e00f52000b003200546380009e
:10656000940290000410200004826200e00f5200a8
:1065700004003200946280000402e8009462880003
:1065800001003700cd0407000900370034c0b30014
:106590000440780049ecb7009562800004ff2000b9
:1065a00004826200700242009462880000000000d1
:1065b00007003700680507009562800004f020009e
:1065c000048262000410b0009462880000000000a1
:1065d000e303370095628000040f2000048262000c
:1065e000e00f5200db033a00946280006f02620009
:1065f000e10f520034003200e10f52000300390075
:10660000e20f5200420032005600370014c0b300bf
:10661000044078005fecb700856280000042eb0028
:10662000844a7800846280008402e80054c0b30089
:10663000844a7800846280008482e800f4c52000e7
:1066400014427800844a780084628000e3024200a9
:106650000042eb00844a780084628000e402420039
:106660000042eb00844a780084628000e502420028
:106670000042eb00844a780084628000e602420017
:106680000042eb00844a780084628000e702420006
:106690000042eb00844a78008662800055638000e7
:1066a0000002eb008001eb008200200086007800f1
:1066b00005007800720c0700946280000402e80074
:1066c0009462880027003700546380009402900091
:1066d0000420200004826200e00f520020003200fb
:1066e0005463800094029000041020000482620031
:1066f000e00f520004003200946280000402e800bf
:1067000094628800170037006c04070015003700fa
:106710006463800004427800614262000482fb00ee
:106720004722dd0084427800f4c52000144278003e
:1067300004c27200044078005eecb70034c0b300bd
:106740000440780049ecb7009562800004f0200016
:10675000048262000410b0009462880001003700d7
:1067600000000000000000007d03370095628000fb
:10677000040f20000482620005022000850f5200f1
:10678000cb00320005022000850f520005003e00bc
:10679000e00f52000a003200f00f520027003200d2
:1067a0006f03370005032000850f52002c013200d3
:1067b00005042000850f5200e50132006803370010
:1067c00094678000145290000440780048ecb700b1
:1067d00011003700346380001402900044079800d1
:1067e00034638000140278000400780013fa070074
:1067f000346380008002eb00050a78003463800077
:10680000040078000dfa07000002eb0034638800f2
:106810004e0290003463880034638000e00f520021
:10682000ecff3a009562800004ff200004826200c1
:1068300070024200946288009202370094628000e5
:106840006f026200e10f520031003200e10f52008e
:1068500003003900e20f52003f003200930037007e
:106860008562800004c8b300844a78008462800096
:106870008402e80064c0b300844a78008462800027
:106880008482e8000042eb00844a78008462800041
:10689000e302420024c0b300844a7800846280008e
:1068a000e40242000042eb00844a780084628000e7
:1068b000e50242000042eb00844a780084628000d6
:1068c000e602420084c0b300844a780084628000fb
:1068d000e70242000042eb00844a780087628000b1
:1068e0008662800055638000840020008701780064
:1068f000820020008600780005007800a30b0700c6
:10690000946280000402e800946288006700370007
:1069100054638000940290000420200004826200ee
:10692000e00f52000b00320054638000940290008c
:106930000410200004826200e00f520004003200c4
:10694000946280000402e80094628800010037002d
:10695000da030700550037006000200029f907001e
:1069600000027800440798004e029000e00f5200a9
:1069700006003a0034c3b3000440780060ecb7006e
:106980000450200094628800480037004e049000b4
:106990008462800063024200144278000482fb009b
:1069a000c822dd00846280000482e800144278007e
:1069b0000482fb00048242000400780011f9070001
:1069c00000027800040c780018027800e00f5200f2
:1069d0000a003a004e00900098f907000002eb0010
:1069e0004407980034c3b3000440780060ecb7005b
:1069f00004502000946288002c0037004e02900062
:106a00001402780085628000e3824200954278009b
:106a10008582fb00482bdd00856280008582e800ce
:106a2000954278008582fb0005034300f50f2000a6
:106a300085036300a4429000e0c2620087c2720036
:106a4000254298004833de00b4429000e0c2620064
:106a500086c27200354298004e0290003563800075
:106a6000150298004e029000346388004e02900098
:106a70001402780084678800ce02900084c420004d
:106a800014427800c442980034c0b3000440780037
:106a900049ecb7009562800004ff20000482620088
:106aa000700242009462880000000000f501370087
:106ab000946280006f026200e10f520040003200d9
:106ac000e10f520003003900e20f52004e00320085
:106ad000620037008562800004c8b300844a7800f1
:106ae000846280008402e80064c0b300844a7800b5
:106af000846280008482e8000042eb00844a7800cf
:106b000084628000e302420024c0b300844a78001b
:106b100084628000e40242000042eb00844a780074
:106b200084628000e50242000042eb00844a780063
:106b300084628000e6024200346380001402780020
:106b40000482e80014427800844a7800846280005d
:106b5000e7024200346380001402780063024200be
:106b600014427800844a780034638000140278006c
:106b700084027800254290000483fb003542900097
:106b80000482fb004822dd000602720035638000ab
:106b90009503780086628000556380008701780045
:106ba000820020008600780005007800f70a0700c0
:106bb000946280000402e800946288002700370095
:106bc000546380009402900004202000048262003c
:106bd000e00f52000b0032005463800094029000da
:106be0000410200004826200e00f52000400320012
:106bf000946280000402e80094628800010037007b
:106c00002e0307001500370034c0b300044078009d
:106c100049ecb70084c42000144278000442e90023
:106c20000440780048ecb70084c420001442780087
:106c3000e04f5200030032000431200094628800cb
:106c4000050037009562800004ff20000482620086
:106c50007002420094628800000000008901370041
:106c6000946280006f026200050020003600200060
:106c700007002000860f5200878f5a00b2003e00a6
:106c80000460010003003700490037008700370027
:106c900098003700570a0700c4c520001442780046
:106ca000e04f520012003a003463800044658800cf
:106cb0000b00370044658000140278008467880068
:106cc0004d0c070000027800e00f520022003a004d
:106cd000480a07004465800014029000446588005b
:106ce00044658000e00f5200f2ff3a001b003700bd
:106cf00034638000446588000300370044658000e9
:106d0000140290004465880044658000e00f520042
:106d10000600320044658000c4429000c4c52000d3
:106d20001442780084cf5200f4ff3a00446580009a
:106d300014027800846788002f0c07000002780096
:106d4000e00f520005003a002a0a07000002eb009b
:106d50004465880001003700000000006463800083
:106d600064026200e00f52000d00320044658000b2
:106d7000e00f520006003a0044c3b300044078001c
:106d800060ecb700045020009462880007003700d0
:106d9000946280000402e8009462880003003700d7
:106da000946280000402e800946288006700370063
:106db0006463800064026200e00f520035003a0014
:106dc0006c4ca800856280000042eb00844a780089
:106dd000846280008402e80034c0b300844a7800f2
:106de0006463800068026200e00f52000500320018
:106df000846280008482e80034c0b300844a780052
:106e000004003700846280008482e80044c0b3003c
:106e1000844a780084628000e30242000042eb0072
:106e2000844a780084628000e40242000042eb0061
:106e3000844a780084628000e50242000042eb0050
:106e4000844a780084628000e60242000042eb003f
:106e5000844a780084628000e70242000042eb002e
:106e6000844a780086628000556380000002eb004f
:106e70008001eb0082002000860078000500780089
:106e80007f0a0700946280000402e8009462880090
:106e9000050037009562800004ff20000482620034
:106ea000700242009462880028003700546380001a
:106eb000940290000420200004826200e00f52003f
:106ec0000b003200546380009402900004102000f4
:106ed00004826200e00f52000400320094628000dd
:106ee0000402e80094628800010037007302070082
:106ef0001600370034c0b3000440780049ecb700f6
:106f000044658000e00f520006003a0044c3b3001d
:106f10000440780060ecb7000450200094628800c0
:106f20000800370034c0b3000440780049ecb700d3
:106f30009562800004ff200004826200700242001b
:106f4000946288000100370000000000cd00370087
:106f5000946280006f02620005002000360020006d
:106f600007002000860f5200878f5a00c3003e00a2
:106f700004600100030037002e0037003f00370097
:106f800045003700856280000042eb00844a7800ab
:106f9000846280008402e80094c0b300844a7800d0
:106fa000846280008482e800c4c520001442780016
:106fb000844a780084628000e30242000042eb00d1
:106fc000844a780084628000e40242000042eb00c0
:106fd000844a780084628000e50242000042eb00af
:106fe000844a780084628000e60242000042eb009e
:106ff000844a780084628000e70242000042eb008d
:10700000844a780086628000556380000002eb00ad
:107010008001eb00820020008600780005007800e7
:10702000170a0700946280000402e8009462880056
:1070300093003700546380009402900004202000e5
:1070400004826200e00f52000b00320054638000a3
:10705000940290000410200004826200e00f5200ad
:1070600004003200946280000402e8009462880008
:1070700001003700110207008100370034c0b3005f
:107080000440780049ecb700946280000402e800f4
:10709000946288007a0037009562800004f0200036
:1070a000048262000410b00094628800656380006e
:1070b0000404200004826200e00f5200210032002c
:1070c00014c6200014427800244798002e429000f5
:1070d0000482fb006a22b90084027800a4ca20005e
:1070e00004824200940378002e4290000482fb0048
:1070f0006a22b90004027800e6024200a4ca200015
:10710000048242001402be00f6c520001643780037
:10711000ae4090000401be00064078000700010068
:1071200000027800e00f52002e003a0094c3b30032
:107130000440780060ecb70004502000946288009e
:107140002800370044638000040f780022003700d5
:107150001e027800f4429000254798002e429000cd
:107160000482fb006a22b90084027800a4ca2000cd
:1071700004824200940378002e4290000482fb00b7
:107180006a22b90004027800e6024200a4ca200084
:10719000048242001402be00f6c5200016437800a7
:1071a000ae4090000401be000640780007000100d8
:1071b00000027800e00f520005003a0094c3b300cb
:1071c0000440780060ecb70004502000946288000e
:1071d0001e027800140f78001e027800e00f5200a3
:1071e000dbff3a006563800004082000048262002f
:1071f000e00f52002000320024c620001442780024
:10720000244798002e4290000482fb006a22b900b5
:1072100084027800a4ca200004824200940378000b
:107220002e4290000482fb006a22b900040278001a
:10723000e6024200a4ca2000048242001402be00fa
:10724000f6c5200016437800ae4090000401be0051
:10725000064078000700010000027800e00f5200ad
:1072600005003a0094c3b3000440780060ecb70016
:1072700004502000946288000100370000000000e4
:1072800000000000b600370095628000040f200067
:1072900004826200e00f520003003200f00f52003f
:1072a00002003200ae0037002a00370094628000ee
:1072b0006f02620005002000560020000700200039
:1072c000860f5200878f5a00a4003e000460010020
:1072d00005003700050037000e0037000e003700ac
:1072e00018003700180037001a0037009444a8002f
:1072f00054012000646288000404200004248800f3
:1073000082c4a800946280000402e80094628800ad
:10731000100037000f0037009444a9009404a8001f
:10732000b400200064628800040420000424880063
:1073300082c4a800946280000402e800946288007d
:1073400004003700030037000440200094628800e6
:10735000000000008200370095628000040f2000ca
:1073600004826200e00f520077003a00840020009f
:10737000a42488000002eb0064248800f40f20009d
:107380005424880015248000c40820000482620070
:1073900014248800d4072000042488000002eb0095
:1073a00084248800f40f2000742488008c04a80032
:1073b000040420000424880082c4a80004c620001d
:1073c000144278000482fb006123b90094ff2f006f
:1073d000f5ff2f000602420087824a0026032000a4
:1073e00007002000860f5200878f5a0043003e009e
:1073f0000460010038003700400037003f003700cc
:107400003e0037003d0037003c0037003b003700ae
:107410003a003700390037003800370037003700ae
:1074200036003700350037003400370033003700ae
:107430003200370031003700300037002f003700ae
:107440002e0037002d0037002c0037002b003700ae
:107450002a003700290037002800370027003700ae
:1074600026003700250037002400370023003700ae
:107470002200370021003700200037001f003700ae
:107480001e0037001d0037001c0037001b003700ae
:107490001a003700190037001800370017003700ae
:1074a00016003700120037000800370004003700cc
:1074b00012003700110037001000370009003700b4
:1074c00054c6b300244798000f003700c4c6b30069
:1074d000244798000c003700d4c6b3002447980016
:1074e00009003700e4c6b3002447980006003700bf
:1074f000f4c6b300244798000300370004c7b30064
:1075000024479800000000002e4290008483fb0076
:10751000f6c5200016437800140020000500200066
:1075200042c620008700780006407800841f0700cc
:107530009562800004ff2000048262007002420015
:107540009462880001003700000000000000000085
:1075500003003700000000000100370000000000b9
:107560004f0478000080fa00000006000400fa00d2
:107570002047980031479800f5c5200095427800d3
:107580002e42900084cf520010003a003e409000fe
:107590004b02070000027800040f78001e027800fa
:1075a000e00f52000a0032009e027800150290009f
:1075b0000470a000940298009e02780015029000ca
:1075c0000490a00094029800010037000000000021
:1075d0000080fa00000006000a00fa004047980008
:1075e000514798003207980043079800f5c52000de
:1075f000954278004e42900084cf5200080032003d
:10760000be02900064c0b300844a78004e0390002c
:107610006022b800048bbe00140020003a0037003e
:107620005e4090002602070000027800040f7800f8
:107630001e027800e00f52002f0032001e02780078
:10764000140290004922de00614262002447980043
:107650001e02780094029000041020000482620050
:10766000e00f520009003200be0290000042eb0021
:10767000844a78001e027800940a9000040a900060
:107680004e039000048bbe00180037001e027800e5
:10769000940290000402200004826200e00f520075
:1076a00004003200be02900014c1b300844a780086
:1076b0000e0037001e02780094029000040420009f
:1076c00004826200e00f5200050032001e027800c2
:1076d000445a9000be029000844a780003003700ac
:1076e000be02900094c1b300844a78002e429000fc
:1076f0000482fb0004003700be02900044c1b300c6
:10770000844a780014002000040078000080fa0009
:10771000000006000400fa00000f780021479800de
:10772000324798002e429000e14f420012003a008a
:107730003e429000e04f52000f003a0084062000c5
:107740009e027800848f520004003a00bbf80700c4
:10775000a40ca9000042eb0008003700b40620008a
:107760009e027800848f520003003a00a40ca80007
:107770000042eb000100370034c0b3000440780041
:107780000080fa00000006000a00fa002047980076
:107790003147980022079800340798004507980061
:1077a000f5c52000954278002e42900084cf52000b
:1077b0000200320064c0b3003d00370095628000d3
:1077c00004f020008482620004402000848f520074
:1077d0000200320014c0b300350037003e40900074
:1077e000b701070000027800040f78001e0278003d
:1077f000e00f52002d0032001e027800d40a9000e3
:107800000430200004826200e00f520002003a00bf
:1078100084c1b300260037001e027800245a90006d
:10782000e04f520002003d0054c1b3002000370079
:107830001e0278009402900004022000048262007c
:10784000e00f52000200320014c1b30018003700ec
:107850001e0278009402900004042000048262005a
:10786000e00f52000200320024c1b30010003700c4
:107870001e0278009402900004202000048262001e
:10788000e00f520002003a0004c1b30008003700c4
:107890003e02900004017800ae0090001e007800c7
:1078a000830807000042eb000100370044c1b30029
:1078b000044078000080fa00000006000000fa0092
:1078c00075628000150290000460a1009402980087
:1078d00075628000150290000450a1009402980087
:1078e00094c42000144278000442e9000440780067
:1078f00049ecb70094c4200014427800e04f5200d5
:10790000050032009562800004ff2f0004826200af
:107910009462880011003700a4c42000144278004b
:107920000442e900044078004aecb700a4c42000f7
:1079300014427800e04f520003003200041120008e
:10794000946288000500370074c0b30004407800da
:1079500060ecb70004502000946288000080fa00b8
:10796000000006001200fa00404f9800514f9800a6
:10797000624f9800030f98009467800014079800e6
:107980000002eb00040f78006c0037001e02780044
:107990004322dd00e6024200e4cb200004824200e4
:1079a000140278000402d10061426200e14f5200eb
:1079b00061003a001e0278004322dd00e602420028
:1079c000e4cb200004824200140278004522de004d
:1079d00061426200e04f520008003a001e02780047
:1079e000c322dd00e4cb20000482420094427800f0
:1079f0004e4a900084cf52004f003a001e02780099
:107a00004322dd00e6024200e4cb20000482420073
:107a1000140278004422de0061426200e04f52000e
:107a200008003a001e027800c322dd00e4cb2000eb
:107a300004824200944290005e4a900084cf52003b
:107a40003d003a001e0278004322dd00e6024200bb
:107a5000e4cb200004824200140278004322de00be
:107a600061426200e04f520009003a001e027800b5
:107a70004322dd008482e800e4cb2000048242003f
:107a8000944278006e4a900084cf52002a003a0057
:107a90009e029000054a90000483fb00154a900066
:107aa0000482fb004822dd000602720024079800d1
:107ab0009e029000254a90000483fb00354a900006
:107ac0000482fb004822dd000602720034079800a1
:107ad0004e4a9000044f98005e4a9000144f980060
:107ae0006e4a9000244f98006403470084002000f1
:107af00005002000060178009107200000c0eb007f
:107b00000f1e070000027800e00f52000a003a0042
:107b10001e0278004322dd00e4024200e4cb200094
:107b200004824200144290008e0a9000844a780039
:107b300014002000050037001e0fe8001e02780028
:107b4000e20f520091ff34000002eb0004007800c5
:107b50000080fa00000006000c00fa009467800024
:107b6000140798000002eb00040f78006ccca90009
:107b70006ceca900cb0037001e0278004322dd0028
:107b8000e6024200e4cb20000482420014027800a6
:107b90000402d10061426200e04f52001e00320038
:107ba0001e027800c322dd00e4cb200004824200e4
:107bb000944278001e0290004442900084cf52000c
:107bc00096003a001e027800c322dd00e4cb2000bc
:107bd00004824200944290001e02900054429000a1
:107be00084cf52008d003a001e0278004322dd004f
:107bf0008482e800e4cb20000482420094427800b2
:107c00001e0290006442900084cf520083003a002c
:107c10006ccca800810037001e027800c322dd0072
:107c2000e4cb200004824200140378009e029000fe
:107c3000054a90008483fb00154a90000482fb00f3
:107c40004822dd0007027200840f530036003a001c
:107c50001e0278004322dd008482e800e4cb20008d
:107c600004824200140378009e029000254a90008e
:107c70008483fb00354a90000482fb004822dd002b
:107c800007027200840f530027003a001e0278009a
:107c90004322dd00e6024200e4cb200004824200e1
:107ca000140278004722de0061426200e14f520078
:107cb0001c003a006ceca8001e0278004322dd0094
:107cc000e4024200e4cb200004824200144290000f
:107cd0000440780062ecb7001e0278004322dd0009
:107ce000e6024200e4cb2000048242001402780045
:107cf0004222de0061426200e04f52000a00320080
:107d00001e0278004322dd00e4024200e4cb2000a2
:107d10000482420014427800044078005cecb70012
:107d2000010037006ccca8001e027800c322dd00e1
:107d3000e4cb20000482420014027800e10f4200ec
:107d400036003a001e0278004322dd008482e800fb
:107d5000e4cb20000482420014027800e10f4200cc
:107d60002e003a009e029000054a90000483fb001a
:107d7000154a90000482fb004822dd0006027200d2
:107d8000240798009e029000254a90000483fb007f
:107d9000354a90000482fb004822dd000602720092
:107da000340798001e027800c322dd00e4cb2000d7
:107db0000482420014427800044f98001e027800aa
:107dc000c322dd00e4cb2000048242001442900074
:107dd000144f98001e0278004322dd008482e800e0
:107de000e4cb20000482420014427800244f980023
:107df000640347008400200005002000060178008d
:107e00009107200000c0eb004d1d07000002780024
:107e1000e00f520001003a006ccca80065638000be
:107e20000404200004826200e00f52001c003200b3
:107e30001e0278004322dd00e4024200e4cb200071
:107e400004824200144290000440780061ecb700c4
:107e50001e0278004322dd00e6024200e4cb20004f
:107e600004824200140278004222de006142620075
:107e7000e04f5200080032001e0278004322dd006d
:107e8000e4024200e4cb2000048242001442780065
:107e9000044078005cecb7001400200005003700b7
:107ea0001e0fe8001e027800e20f520032ff36007b
:107eb0000002eb00040078000080fa0000000600d9
:107ec0000600fa00404798004e429000e04f5200f2
:107ed00002003a00546380001f00370044638000b2
:107ee00014079800180037001e029000240290002a
:107ef000e00f5200110032001e0290002402900098
:107f0000a4029000050f7800090037001e027800d7
:107f1000a45a90004e42900084cf520002003a00d2
:107f20001e0278000c0037001e027800140f780043
:107f30001e027800e00f5200f4ff3a001e0290008b
:107f400094027800150798001e029000e00f52007e
:107f5000e5ff3a000002eb00040078000080fa0020
:107f6000000006001e00fa000002eb00040f78007b
:107f700094628000b462800070026200e00f5200e0
:107f8000f6043a00b462800061026200e00f520021
:107f900056023a000040eb00f504070000027800aa
:107fa000e00f52005002320074628000045a9000c8
:107fb0008482fb00040f200004826200050220007e
:107fc000850f5200bc00320005032000850f5200cf
:107fd00079013200f00f520037023a0074628000db
:107fe000045a90000482fb006f026200cfa2de0000
:107ff000f600200007002000860f5200878f5a00ed
:10800000a9003e00046001000f0037001b0037008c
:108010002d003700a4003700a3003700a20037006e
:10802000a1003700a00037009f0037009e003700f6
:108030009d0037009c0037009b0037009a003700f6
:10804000990037005d0037007562800015029000ce
:1080500004b0a10094029800d0c0b300e909070061
:1080600074628000245a9000d1c0b30004407800ac
:10807000b5090700560ca800bb04370076628000e3
:1080800074628000940a9000040a900054039800df
:1080900065039800756280001502900004b0a0008e
:1080a0009402980090c0b300d60907007462800063
:1080b000245a900091c0b30004407800a209070040
:1080c000560ca800a8043700756280000042eb003f
:1080d000845a980075628000150290000490a000f8
:1080e0009402980094638000e30f52002f003c003c
:1080f000946380000402e800946388007463800045
:10810000e20f520004003c00746380000402e800a7
:1081100074638800020037000002eb00746388007b
:10812000746380006c22b9008402780044c7200088
:1081300004824200140798001e02900025072000c8
:10814000050a780074628000940a9000040a900086
:108150001e039000140398002503980074628000a9
:10816000b40a90001e029000350298009e02900012
:108170000042eb00944a980074628000245a9000f8
:108180009e029000844a980074628000345a9000e5
:108190009e029000a44a980074628000145a9000d5
:1081a0009e029000b44a9800030037007562800078
:1081b00084c0b300b45a98003e0037007562800056
:1081c0000042eb00845a980075628000150290000e
:1081d0000490a0009402980094638000e30f520082
:1081e0002d003c00946380000402e8009463880042
:1081f00074638000e20f520004003c00746380004e
:108200000402e80074638800020037000002eb00fb
:1082100074638800746380006c22b9008402780063
:1082200044c7200004824200240798002e029000d8
:10823000f5ff2700050a78002e0390006022b800a1
:1082400014039800250398002e0290008002eb0092
:108250003502980074628000445a9000ae0290008b
:10826000944a980074628000245a9000ae029000f4
:10827000844a980074628000345a9000ae029000e4
:10828000a44a980074628000145a9000ae029000d4
:10829000b44a9800030037007562800084c0b300c0
:1082a000b45a98000300370014002000040f78002f
:1082b000000000008201370074628000045a9000c0
:1082c0000482fb006f026200cfa2de00f6002000f5
:1082d00007002000860f5200878f5a00b2003e0030
:1082e000046001000f0037001b0037002300370037
:1082f00035003700ac003700ab003700aa0037006c
:10830000a9003700a8003700a7003700a6003700f3
:10831000a5003700a4003700a3003700a2003700f3
:1083200066003700756280001502900004b0a1005d
:1083300094029800d0c0b300320907007462800034
:10834000245a9000d1c0b30004407800fe08070012
:10835000560ca8000404370090c0b3002909070098
:1083600074628000245a900091c0b30004407800e9
:10837000f5080700560ca800fb0337007662800062
:1083800074628000940a9000040a900054039800dc
:1083900065039800756280001502900004b0a0008b
:1083a0009402980010c0b3001609070074628000a0
:1083b000245a900011c0b30004407800e20807007e
:1083c000560ca800e8033700756280000042eb00fd
:1083d000845a980075628000150290000490a000f5
:1083e0009402980094638000e30f52002f003c0039
:1083f000946380000402e800946388007463800042
:10840000e20f520004003c00746380000402e800a4
:1084100074638800020037000002eb007463880078
:10842000746380006c22b9008402780044c7200085
:1084300004824200340798003e0290002507200085
:10844000050a780074628000940a9000040a900083
:108450003e03900014039800250398007462800086
:10846000b40a90003e02900035029800be029000cf
:108470000042eb00944a980074628000245a9000f5
:10848000be029000844a980074628000345a9000c2
:10849000be029000a44a980074628000145a9000b2
:1084a000be029000b44a9800030037007562800055
:1084b00084c0b300b45a98003e0037007562800053
:1084c0000042eb00845a980075628000150290000b
:1084d0000490a0009402980094638000e30f52007f
:1084e0002d003c00946380000402e800946388003f
:1084f00074638000e20f520004003c00746380004b
:108500000402e80074638800020037000002eb00f8
:1085100074638800746380006c22b9008402780060
:1085200044c7200004824200440798004e02900095
:10853000f5ff2700050a78004e0390006022b8007e
:1085400014039800250398004e0290008002eb006f
:108550003502980074628000445a9000ce02900068
:10856000944a980074628000245a9000ce029000d1
:10857000844a980074628000345a9000ce029000c1
:10858000a44a980074628000145a9000ce029000b1
:10859000b44a9800030037007562800084c0b300bd
:1085a000b45a98000300370014002000040f78002c
:1085b00000000000c200370074628000045a90007e
:1085c0000482fb006f026200cfa2de00f6002000f2
:1085d00007002000860f5200878f5a00b2003e002d
:1085e000046001000f0037001b0037002300370034
:1085f00035003700ac003700ab003700aa00370069
:10860000a9003700a8003700a7003700a6003700f0
:10861000a5003700a4003700a3003700a2003700f0
:1086200066003700756280001502900004b0a1005a
:1086300094029800d0c0b3007208070074628000f2
:10864000245a9000d1c0b300044078003e080700cf
:10865000560ca8004403370010c0b3006908070097
:1086600074628000245a900011c0b3000440780066
:1086700035080700560ca8003b03370076628000df
:1086800074628000940a9000040a900054039800d9
:1086900065039800756280001502900004b0a00088
:1086a0009402980090c0b3005608070074628000de
:1086b000245a900091c0b3000440780022080700bb
:1086c000560ca80028033700756280000042eb00ba
:1086d000845a980075628000150290000490a000f2
:1086e0009402980094638000e30f52002f003c0036
:1086f000946380000402e80094638800746380003f
:10870000e20f520004003c00746380000402e800a1
:1087100074638800020037000002eb007463880075
:10872000746380006c22b9008402780044c7200082
:1087300004824200540798005e0290002507200042
:10874000050a780074628000940a9000040a900080
:108750005e03900014039800250398007462800063
:10876000b40a90005e02900035029800de0290008c
:108770000042eb00944a980074628000245a9000f2
:10878000de029000844a980074628000345a90009f
:10879000de029000a44a980074628000145a90008f
:1087a000de029000b44a9800030037007562800032
:1087b00084c0b300b45a98003e0037007562800050
:1087c0000042eb00845a9800756280001502900008
:1087d0000490a0009402980094638000e30f52007c
:1087e0002d003c00946380000402e800946388003c
:1087f00074638000e20f520004003c007463800048
:108800000402e80074638800020037000002eb00f5
:1088100074638800746380006c22b900840278005d
:1088200044c7200004824200640798006e02900052
:10883000f5ff2700050a78006e0390006022b8005b
:1088400014039800250398006e0290008002eb004c
:108850003502980074628000445a9000ee02900045
:10886000944a980074628000245a9000ee029000ae
:10887000844a980074628000345a9000ee0290009e
:10888000a44a980074628000145a9000ee0290008e
:10889000b44a9800030037007562800084c0b300ba
:1088a000b45a98000300370014002000040f780029
:1088b000000000000200370014002000040f7800c0
:1088c0001e027800e00f520007003200756280003f
:1088d0000042eb00845a98007562800015029000f7
:1088e0000490a00094029800560ca800b462800086
:1088f00062026200e00f520050013a004901370065
:1089000074628000045a90008482fb00040f2000ef
:108910000482620005042000850f5200040032002a
:1089200005052000850f5200970032002c0137000a
:1089300074628000045a90000482fb006f0262009f
:10894000e10f52000c003200ef0f52004b003200da
:10895000e00f520088003a0090c0b300a90707005a
:1089600074628000245a900091c0b30004407800e3
:10897000750707007c023700756280000042eb003b
:10898000845a98007462800075628000a50290008d
:108990003502980075628000150290000490a000d6
:1089a0009402980094638000e30f52002f003c0073
:1089b000946380000402e80094638800746380007c
:1089c000e20f520004003c00746380000402e800df
:1089d00074638800020037000002eb0074638800b3
:1089e000746380006c22b9008402780044c72000c0
:1089f00004824200740798007e0290002507200040
:108a0000050a780074628000940a9000040a9000bd
:108a10007e03900014039800250398007462800080
:108a2000b40a90007e02900035029800fe02900089
:108a30000042eb00944a980074628000245a90002f
:108a4000fe029000844a980074628000345a9000bc
:108a5000fe029000a44a980074628000145a9000ac
:108a6000fe029000b44a980003003700756280004f
:108a700084c0b300b45a9800420037007562800089
:108a80000042eb00845a9800746280007562800096
:108a9000a5029000350298007562800015029000d2
:108aa0000490a0009402980094638000e30f5200a9
:108ab0002d003c00946380000402e8009463880069
:108ac00074638000e20f520004003c007463800075
:108ad0000402e80074638800020037000002eb0023
:108ae00074638800746380006c22b900840278008b
:108af00044c7200004824200040f98000e0a900030
:108b0000f5ff2700050a78000e0b90006022b800e0
:108b100014039800250398000e0a90008002eb00d1
:108b20003502980074628000445a90008e0a9000ca
:108b3000944a980074628000245a90008e0a900033
:108b4000844a980074628000345a90008e0a900023
:108b5000a44a980074628000145a90008e0a900013
:108b6000b44a9800030037007562800084c0b300e7
:108b7000b45a98000300370014002000040f780056
:108b8000000000009900370074628000045a9000d1
:108b90000482fb006f026200e10f52000c00320001
:108ba000ef0f52004b003200e00f520088003a00f5
:108bb00010c0b3001307070074628000245a9000ad
:108bc00011c0b30004407800df060700e60137005b
:108bd000756280000042eb00845a98007462800045
:108be00075628000a50290003502980075628000d1
:108bf000150290000490a0009402980094638000f5
:108c0000e30f52002f003c00946380000402e80050
:108c10009463880074638000e20f520004003c00fb
:108c2000746380000402e800746388000200370067
:108c30000002eb0074638800746380006c22b9004a
:108c40008402780044c7200004824200140f980078
:108c50001e0a900025072000050a78007462800033
:108c6000940a9000040a90001e0b900014039800d0
:108c70002503980074628000b40a90001e0a9000d8
:108c8000350298009e0a90000042eb00944a98003a
:108c900074628000245a90009e0a9000844a9800d2
:108ca00074628000345a90009e0a9000a44a980092
:108cb00074628000145a90009e0a9000b44a980092
:108cc000030037007562800084c0b300b45a980076
:108cd00042003700756280000042eb00845a980021
:108ce0007462800075628000a502900035029800d1
:108cf00075628000150290000490a0009402980014
:108d000094638000e30f52002d003c0094638000c8
:108d10000402e8009463880074638000e20f52004c
:108d200004003c00746380000402e800746388005f
:108d3000020037000002eb00746388007463800057
:108d40006c22b9008402780044c7200004824200eb
:108d5000240f98002e0a9000f5ff2700050a7800de
:108d60002e0b90006022b800140398002503980091
:108d70002e0a90008002eb00350298007462800099
:108d8000445a9000ae0a9000944a980074628000a1
:108d9000245a9000ae0a9000844a980074628000c1
:108da000345a9000ae0a9000a44a98007462800081
:108db000145a9000ae0a9000b44a9800030037009d
:108dc0007562800084c0b300b45a98000300370075
:108dd00014002000040f780000000000030037009a
:108de00014002000040f7800000000001e0278002c
:108df000e00f52000b003200756280000042eb0071
:108e0000845a98007462800075628000a502900008
:108e10003502980075628000150290000490a00051
:108e20009402980030c0b30051010700000278009e
:108e3000e00f5200b2fe3a00562ca800b462800047
:108e400068026200e00f520046013a0020c0b30001
:108e50004701070000027800e00f520035013200a0
:108e600074628000045a90008482fb00040f20008a
:108e70000482620005082000850f520004003200c1
:108e800005092000850f52008f0032001c013700b9
:108e900074628000045a90000482fb006f0262003a
:108ea000e10f52000c003200ef0f52004700320079
:108eb000e00f520080003a0090c0b3005106070056
:108ec00074628000245a900091c0b300044078007e
:108ed0001d06070024013700756280000042eb0088
:108ee000845a980075628000150290000490a000da
:108ef0009402980094638000e30f52002f003c001e
:108f0000946380000402e800946388007463800026
:108f1000e20f520004003c00746380000402e80089
:108f200074638800020037000002eb00746388005d
:108f3000746380006c22b9008402780044c720006a
:108f400004824200340f98003e0a9000250720005a
:108f5000050a780074628000940a9000040a900068
:108f60003e0b900014039800250398007462800063
:108f7000b40a90003e0a900035029800be0a9000a4
:108f80000042eb00944a980074628000245a9000da
:108f9000be0a9000844a980074628000345a90009f
:108fa000be0a9000a44a980074628000145a90008f
:108fb000be0a9000b44a9800030037007562800032
:108fc00084c0b300b45a98003e0037007562800038
:108fd0000042eb00845a98007562800015029000f0
:108fe0000490a0009402980094638000e30f520064
:108ff0002d003c00946380000402e8009463880024
:1090000074638000e20f520004003c00746380002f
:109010000402e80074638800020037000002eb00dd
:1090200074638800746380006c22b9008402780045
:1090300044c7200004824200440f98004e0a90006a
:10904000f5ff2700050a78004e0b90006022b8005b
:1090500014039800250398004e0a90008002eb004c
:109060003502980074628000445a9000ce0a900045
:10907000944a980074628000245a9000ce0a9000ae
:10908000844a980074628000345a9000ce0a90009e
:10909000a44a980074628000145a9000ce0a90008e
:1090a000b44a9800030037007562800084c0b300a2
:1090b000b45a98000300370014002000040f780011
:1090c000000000009100370074628000045a900094
:1090d0000482fb006f026200e10f52000c003200bc
:1090e000ef0f520047003200e00f520080003a00bc
:1090f00010c0b300c305070074628000245a9000ba
:1091000011c0b300044078008f05070096003700b7
:10911000756280000042eb00845a980075628000fe
:10912000150290000490a0009402980094638000bf
:10913000e30f52002f003c00946380000402e8001b
:109140009463880074638000e20f520004003c00c6
:10915000746380000402e800746388000200370032
:109160000002eb0074638800746380006c22b90015
:109170008402780044c7200004824200540f980003
:109180005e0a900025072000050a780074628000be
:10919000940a9000040a90005e0b9000140398005b
:1091a0002503980074628000b40a90005e0a900063
:1091b00035029800de0a90000042eb00944a9800c5
:1091c00074628000245a9000de0a9000844a98005d
:1091d00074628000345a9000de0a9000a44a98001d
:1091e00074628000145a9000de0a9000b44a98001d
:1091f000030037007562800084c0b300b45a980041
:109200003e003700756280000042eb00845a9800ef
:1092100075628000150290000490a00094029800ee
:1092200094638000e30f52002d003c0094638000a3
:109230000402e8009463880074638000e20f520027
:1092400004003c00746380000402e800746388003a
:10925000020037000002eb00746388007463800032
:109260006c22b9008402780044c7200004824200c6
:10927000640f98006e0a9000f5ff2700050a780039
:109280006e0b90006022b80014039800250398002c
:109290006e0a90008002eb00350298007462800034
:1092a000445a9000ee0a9000944a9800746280003c
:1092b000245a9000ee0a9000844a9800746280005c
:1092c000345a9000ee0a9000a44a9800746280001c
:1092d000145a9000ee0a9000b44a98000300370038
:1092e0007562800084c0b300b45a98000300370050
:1092f00014002000040f7800000000000300370075
:1093000014002000040f7800000000001e02780006
:10931000e00f520007003200756280000042eb004f
:10932000845a980075628000150290000490a00095
:109330009402980094c5200014427800e04f520037
:10934000040032000042eb000440780058ecb70003
:10935000bafe3700566ca80003003700000000007a
:1093600001003700000000000080fa000000060045
:109370000600fa004047980054638000540a9000a9
:109380004822de00634262008482fb004e4290006d
:109390000482fb00848f52000a003a00546380006c
:1093a000940290000420200004826200e00f52002a
:1093b00004003a00546380007462880014002000a6
:1093c000890037000042eb000440780059ecb700f8
:1093d0000002eb00040f780044638000140798003b
:1093e0001e029000e00f52007b0032001e0290002f
:1093f00024029000e00f5200770032001e0290001d
:1094000024029000a4029000050f7800720037003b
:109410001e027800e00f52005e0032001e0278004b
:10942000540a90004822de00634262008482fb00fe
:109430004e4290000482fb00848f520053003a0099
:109440004e4290000482fb00e20f520025003200e1
:10945000e30f52000c003200e00f52004b003a00c4
:109460001e02780094029000042020000482620012
:10947000e00f52003a003a001e0278007462880041
:1094800014002000580037001e027800940290005b
:109490000420200004826200e00f52000900320024
:1094a0001e02780034029000e00f52002e003a00b5
:1094b0001e027800a40290001e0278003502980077
:1094c000320037001e02780034029000e00f520094
:1094d00027003a001e027800746288001400200001
:1094e000410037001e027800940290000420200002
:1094f00004826200e00f52001f003a001e02780052
:10950000940290000400210004826200e00f5200e7
:109510001b003a0094c52000144278000442e80081
:109520000440780059ecb70095c5200095427800ba
:1095300084c520001442780084cf52001200360007
:1095400094c52000144278000440780058ecb7001d
:109550001e02780074628800140020002200370088
:10956000000000000900370000000000070037007d
:109570000000000005003700000000000300370075
:109580000000000001003700000000001e0278000b
:10959000140f78001e027800e00f52000e003a000f
:1095a0001e02900094027800150798001e02900099
:1095b000e00f5200080032001e02900024029000ca
:1095c000e00f5200040032001e02900024029000be
:1095d00024009000000f78001e029000e00f52005f
:1095e0008bff3a000002eb00040078000080fa00d4
:1095f000000006000600fa003400370044638000d3
:10960000140f780026003700446380001402900095
:109610009402780015079800120037004463800018
:10962000140290002402900094027800250798000c
:10963000446380001402900024029000040078002b
:109640007eee070044638000140290008002eb006d
:10965000250298004463800014029000ae0290003e
:1096600025029800446380001402900024029000b8
:10967000e00f5200e9ff3a004463800014029000ba
:10968000040078006dee0700446380008002eb0068
:1096900015029800446380009e0290001502980015
:1096a0004463800014029000e00f5200d6ff3a009d
:1096b000446380000400780060ee07000002eb00c5
:1096c000446388001e02780044638800446380007d
:1096d000e00f5200c9ff3a005463800074628800b2
:1096e0000080fa00000006000200fa0011003700b6
:1096f0003463800014029000040f7800346380000b
:1097000014027800040078004cee070034638000f7
:109710008002eb00050a78003463800004007800c2
:1097200046ee07000002eb00346388001e0278005a
:109730003463880034638000e00f5200ecff3a008d
:1097400094678000e00f52000500320094678000ab
:109750000400780039ee07000002eb0094678800ef
:1097600084628000e00f52000500320084628000b5
:109770000400780031ee07000002eb0084628800ec
:109780009cff07000080fa00000006000a00fa00b3
:10979000000f7800110798002207980033079800ff
:1097a000440798009e027800150290000450a10022
:1097b000940298009e027800150290000460a100b7
:1097c000940298009e027800150290000470a10097
:1097d000940298009e027800150290000480a10077
:1097e000940298001e0278001403900005fe2f00da
:1097f00085026300150298009e0278001502900011
:1098000004c0a100940298001e027800be029000dd
:10981000350a98001e0378006022b800040b9800f7
:10982000150b98004e029000050020001e037800e2
:1098300054039800650398001e0278008002eb0034
:10984000750a98001e0278009e029000250a980072
:109850001e027800ae029000750298009e02780009
:1098600004c2b300845a98009e027800150290004a
:109870000490a100940298000080fa000000060005
:109880000a00fa00000f78001107980022079800dc
:1098900033079800440798009e0278001502900054
:1098a0000450a100940298009e02780015029000d6
:1098b0000460a100940298009e02780015029000b6
:1098c0000470a100940298009e0278001502900096
:1098d0000480a100940298001e02780014039000f6
:1098e00005fe2f0085026300150298009e02780095
:1098f0001502900004c0a100940298001e02780096
:10990000be029000350a98001e0378006022b8005d
:10991000040b9800150b98004e02900005002000e3
:109920001e03780054039800650398001e02780017
:109930008002eb00750a98001e0278009e029000db
:10994000250a98001e027800ae0290007502980069
:109950004e029000e00f520004003a009e02780090
:1099600004c1b300845a9800030037009e027800b7
:1099700004c3b300845a98009e0278001502900038
:109980000490a100940298000080fa0000000600f4
:109990000600fa00000f78001107980022079800cf
:1099a0009e027800150290000470a10094029800b5
:1099b0009e027800150290000480a1009402980095
:1099c0001e0278001403900005fe2f00850263003c
:1099d000150298009e0278001502900004c0a100b4
:1099e000940298001e0278009e029000350a9800aa
:1099f0001e0378006022b800040b9800150b980035
:109a00002e029000050020001e03780054039800e9
:109a1000650398001e0278008002eb00750a98002a
:109a20001e027800d40a9000043020008482620074
:109a300004302000848f520004003a009e02780017
:109a400004c4b300845a9800130037001e02780043
:109a5000d40a9000043020008482620004102000a8
:109a6000848f520009003a009e02780004c6b300b9
:109a7000845a98001e027800340a9000840278000c
:109a80000042eb0094429800030037009e027800e9
:109a900004c8b300845a98009e0278001502900012
:109aa0000490a100940298000080fa0000000600d3
:109ab0000600fa00000f78001107980022079800ae
:109ac0009e027800150290000470a1009402980094
:109ad0009e027800150290000480a1009402980074
:109ae0001e0278001403900005fe2f00850263001b
:109af000150298009e0278001502900004c0a10093
:109b0000940298001e0278009e029000350a980088
:109b10001e0378006022b800040b9800150b980013
:109b20002e029000050020001e03780054039800c8
:109b3000650398001e0278008002eb00750a980009
:109b40001e027800d40a9000043020008482620053
:109b500004302000848f520004003a009e027800f6
:109b600004c5b300845a9800130037001e02780021
:109b7000d40a900004302000848262000410200087
:109b8000848f520009003a009e02780004c7b30097
:109b9000845a98001e027800340a900084027800eb
:109ba0000042eb0094429800030037009e027800c8
:109bb00004c9b300845a98009e02780015029000f0
:109bc0000490a100940298000080fa0000000600b2
:109bd0000a00fa00204798002107980032079800f1
:109be000430798002e02900025072000850f5200a1
:109bf00003003200f5ff2700850f520014003a00e1
:109c00003e029000144a9000e14f42003c003200b6
:109c10003e029000144a90000482fb006a22b900c0
:109c2000040278008482e800a4ca20000482420072
:109c3000140378004e029000050020003e019000c1
:109c4000ae0090002e409000060001002f0037006b
:109c500044638000040f7800110037001e02780072
:109c6000744290000482fb006a22b900040278006a
:109c70008482e800a4ca2000048242001403780011
:109c80004e029000050020003e019000ae009000c2
:109c90002e409000060001001e027800140f78008c
:109ca0001e027800e00f5200ecff3a00656380006e
:109cb0000408200004826200e00f5200120032000b
:109cc00024c62000144278000482fb006a22b900f6
:109cd000040278008482e800a4ca200004824200c2
:109ce000140378004e029000050020003e01900011
:109cf000ae0090002e4090000600010003003700e7
:109d00000000000001003700000000000080fa00a1
:109d1000000006000a00fa0020479800210798007a
:109d2000320798004307980044638000040f7800ce
:109d3000110037001e027800744290000482fb007c
:109d40006a22b90004027800e4024200a4ca20009a
:109d500004824200140378004e02900005002000a7
:109d60003e019000ae0090002e40900006000100e1
:109d70001e027800140f78001e027800e00f5200d7
:109d8000ecff3a000080fa00000006000a00fa002a
:109d90002047980021079800320798004307980051
:109da0000002eb00040f78000e0037001e0278005e
:109db0006a22b90004027800e4024200a4ca20002a
:109dc00004824200140378004e0290000500200037
:109dd0003e019000ae0090002e4090000600010071
:109de0001e0fe8001e027800e10f5200efff360060
:109df0000080fa00000006002400fa000042eb0098
:109e0000244798000002eb00040f78000002eb00ea
:109e10002407980080678000600798000042eb00ec
:109e2000644f98000042eb00744f98004463800038
:109e3000540798006c2ca9006c4ca8006e0290008e
:109e400094427800055798006e0290000402e800e2
:109e5000640798006e029000144078001057980034
:109e60006e0290000402e800640798006e02900001
:109e7000144278000482fb00140f98006e029000d8
:109e80000402e800640798006e0290001442780013
:109e90000482fb004822dd009e0a900004824200fa
:109ea000140f98006e0290000402e8006407980006
:109eb0006e02900094427800455798006e02900020
:109ec0000402e800640798006e02900014407800d5
:109ed000505798006e0290000402e8006407980052
:109ee0006e0290000402e800640798006e02900081
:109ef0000402e800640798006e0290009442780023
:109f0000655798006e509000206798000042eb0063
:109f100014679800160220000e034300240020005e
:109f200005002000060178009106200000c0eb002b
:109f30000315070000027800e00f520005003a0008
:109f400084c2b3000440780060ecb7001400200025
:109f5000040f78000e5290000482fb00ae029000c5
:109f60000482420024079800856780002e0290003a
:109f70000482420064079800750137006e02900069
:109f800094427800055798006e0290000402e800a1
:109f9000640798006e0290001440780010579800f3
:109fa0006e0290000402e800640798001e529000c0
:109fb000e94f520012003a006c2ca8006e0290008b
:109fc00014427800044078005decb700d4c520004e
:109fd000144278000482fb0062026200e00f52002b
:109fe000060032006463800068026200e00f5200e5
:109ff000020032006c4ca900010037006c6ca90013
:10a000001e529000e44f52000a0032000e5290009f
:10a010000482fb00ae0290000482420024079800f4
:10a02000856780002e029000048242006407980039
:10a03000470137006e0290009442780075579800ef
:10a040006e0290000402e800640798006e0290001f
:10a0500014407800005f98006e0290000402e8004f
:10a06000640798006e02900094427800155f980093
